:020000040800F2
:10C00000308001209DC100082D4301083B27010815
:10C01000B13B010839D8000813BC0108000000003A
:10C020000000000000000000000000007B8B010801
:10C03000A7D90008000000001B4401080590010872
:10C04000B7C10008B7C10008B7C10008B7C10008F0
:10C05000B7C10008B7C10008B7C10008B7C10008E0
:10C06000DDD90008B7C10008B7C10008B7C1000892
:10C07000B7C10008B7C10008B7C10008B7C10008C0
:10C080008DD80008B7C10008B7C10008B7C10008C3
:10C09000B7C10008B7C10008B7C10008E7D9000858
:10C0A000B7C10008B7C10008B7C10008B7C1000890
:10C0B00059910108B7C1000869910108B7C100088A
:10C0C000B7C10008B7C10008B7C10008B7C1000870
:10C0D000B7C10008399D0108499D0108919E0108DA
:10C0E000C9D90008B7C10008B7C10008B7C1000826
:10C0F000B7C10008B7C10008B7C10008B7C1000840
:10C10000B7C10008B7C10008B7C10008B7C100082F
:10C11000B7C10008B7C10008B7C10008B7C100081F
:10C12000B7C10008B7C10008B7C10008B7C100080F
:10C13000B7C10008B7C10008B7C10008B7C10008FF
:10C14000B7C10008B7C10008B7C1000869430108BA
:10C15000B7C10008B7C10008B7C10008B7C10008DF
:10C16000B7C10008B7C10008B7C10008B7C10008CF
:10C17000B7C10008B7C10008B7C10008000000003F
:10C18000B7C10008B7C10008DFF80CD000F0F0FB21
:10C190000048004765220208308001200648804799
:10C1A00006480047FEE7FEE7FEE7FEE7FEE7FEE79C
:10C1B000FEE7FEE7FEE7FEE7F590010889C100080B
:10C1C00040EA01039B0703D009E008C9121F08C019
:10C1D000042AFAD203E011F8013B00F8013B521E99
:10C1E000F9D27047421E12F8013F002BFBD111F823
:10C1F000013B02F8013B002BF9D17047421C10F8BB
:10C20000011B0029FBD1801A704710B5002200E005
:10C21000521C835C8C5CA34201D1002BF8D1D8B2B4
:10C22000E1B2401A10BD30B504460020034600E0DC
:10C230005B1C934203D2E05CCD5C401BF8D030BD68
:10C24000034611F8012B00F8012B002AF9D11846FA
:10C2500070472DE9F04791460F4680460446002678
:10C2600014F8015B2DB100F083FA0068405DC0074F
:10C27000F6D12B2D02D02D2D18D0641E4A463946FA
:10C28000204600F079FA27B13968A14201D1C7F8F8
:10C29000008071054FF002040BD54042002803DDF9
:10C2A0000FF0EEFE0460A007BDE8F08746F480665C
:10C2B000E4E70028F8DA0FF0E3FE04606FF00040D6
:10C2C000F2E72DE9FE4F804681EA0300C00F0C46DD
:10C2D000009021F0004123F00045B8EB0200A94195
:10C2E00005D24046214690461C460B46024623F0A6
:10C2F0000040104304D14046214603B0BDE8F08F12
:10C30000270DC7F30A00C3F30A510290401A0190A7
:10C31000402866DAC3F3130040F4801B009892466D
:10C3200020B10023D2EB030A63EB0B0B01985946B3
:10C33000C0F14002504600F0EAF906460D4650466C
:10C340005946019A00F002FA10EB080061410024FE
:10C3500087EA115284EAE7731A433BD0009A3AB352
:10C36000019A012A4FEA075210DC001B61EB02011F
:10C370004FF0004202EA0752CDE90042001C41F5AD
:10C38000801132462B4600F089FAB6E7001B61EBBC
:10C390000201001C41F5801300185B412018A2F532
:10C3A000001747EB030140EAD570B6196D4111E063
:10C3B0006D084FEA360645EAC0754FEA0752001B82
:10C3C00061EB0201001C41F5801149084FEA300081
:10C3D0000019514132462B4603B0BDE8F04F00F042
:10C3E00050BA0098012240000023D0EB020263EB18
:10C3F000E073009821464FEAE074B8EB000061EB6F
:10C400000401E9E783F000435BE781F0004158E76E
:10C410002DE9FE4F81EA030404F0004421F00041BD
:10C4200000944FF0000B23F0004350EA010402D0C7
:10C4300052EA030404D10020014603B0BDE8F08FA6
:10C44000C3F30A54C1F30A552C44A4F2F334019403
:10C45000A0FB0254C1F3130141F48011C3F3130391
:10C4600043F4801301FB024400FB034E840A970A45
:10C4700044EA815447EA8357A4FB076802958D0A72
:10C4800005FB07854FEA932C04FB0C542705029DFE
:10C490004FEA065847EA1637B5EB08056EEB070C6E
:10C4A000870E920E47EA811742EA8312A7FB020128
:10C4B000B6EB0B0164EB00042B0D43EA0C335E1862
:10C4C00044EB1C50DA465146E7FB0201C5F3130466
:10C4D0004FEA0B3343EA14534FEA0432019C43EA18
:10C4E0000603A4F10C040294009CCDE900B400F012
:10C4F000D5F9A2E72DE9F04D81EA030404F0004BE1
:10C5000021F0004514464FF0000A23F0004150EAA4
:10C51000050220D054EA01021DD0C5F30A57024695
:10C52000C5F31303C1F31300C1F30A5640F4801599
:10C5300043F48013A7EB0608101BD64608F2FD381B
:10C5400073EB050002D308F1010801E092185B418A
:10C55000B8F1000F03DA00200146BDE8F08D00209D
:10C560004FF48011064684460EE0171B73EB050757
:10C5700005D3121B63EB050306434CEA010C490883
:10C580004FEA300092185B4150EA0107EDD152EAC0
:10C59000030012D082EA040083EA0501084303D1B4
:10C5A00000224FF0004308E0101BAB4102D20122F1
:10C5B000002302E06FF0010253101AEB06004CEB6F
:10C5C000085110EB0A0041EB0B01BDE8F04D00F003
:10C5D00058B900F0004230F000400AD0C10D01F51A
:10C5E0006071C0F3160042EA0151C20840071143CE
:10C5F000704700200146704730B5002904DB4FF03A
:10C600000044404264EB0101002B04DB4FF0004486
:10C61000524264EB03038B4208BF824230BD0000EC
:10C6200030B5002904DB4FF00044404264EB0101C7
:10C63000002B04DB4FF00044524264EB03039942A9
:10C6400008BF904230BD000001F0004330B421F03B
:10C65000004150EA010206D00A0DA2F56072C1F352
:10C660001301002A02DC30BC00207047440F44EA6A
:10C67000C104C100E01830BC00EBC25000F0CBB8E0
:10C6800030B50B46014600202022012409E021FAA2
:10C6900002F59D4205D303FA02F5491B04FA02F59F
:10C6A0002844151EA2F10102F1DC30BD2DE9F05F36
:10C6B0000546002092469B46884606468146402411
:10C6C0001BE0284641464746224600F02FF85346D5
:10C6D0005A46C01A914110D311461846224600F01E
:10C6E00016F82D1A67EB01084F462246012000215B
:10C6F00000F00DF817EB00094E41201EA4F10104D3
:10C70000DFDC484631462A464346BDE8F09F202AF2
:10C7100004DB203A00FA02F1002070479140C2F198
:10C72000200320FA03F3194390407047202A04DBCA
:10C73000203A21FA02F00021704721FA02F3D0409A
:10C74000C2F120029140084319467047202A06DBB7
:10C75000CB17203A41FA02F043EAE07306E041FACF
:10C7600002F3D040C2F120029140084319467047BD
:10C7700000487047F87C02082DE9F05F8246007897
:10C78000002715468B460AF10104B946302801D02E
:10C790009DB113E014F8010B0127782803D0582825
:10C7A00001D045B10AE00DB1102D07D100271025A9
:10C7B00014F8010B02E0082500E00A250026B04627
:10C7C0000EE005FB080005FB06F1012701EB104612
:10C7D0001FFA80F8B6F5803F00D3B94614F8010B74
:10C7E000294600F0D7F80028EBDABBF1000F05D09E
:10C7F0000FB1641E00E05446CBF80040B9F1000FC1
:10C8000006D00FF03DFC02210160C81EBDE8F09F7C
:10C8100048EA0640FAE70029A8BF7047401C4900D3
:10C8200008BF20F00100704710B4B0FA80FC00FA95
:10C830000CF050EA010404BF10BC704749B1CCF1C0
:10C84000200421FA04F411FA0CF118BF012121434C
:10C850000843A3EB0C01CB1D0106000A002BBEBF51
:10C86000002010BC704700EBC35010440029A4BF47
:10C8700010BC7047401C490008BF20F0010010BCEC
:10C88000704710B5002B08DA401C41F100019218E6
:10C890005B411A4301D120F0010010BD2DE9F04D9C
:10C8A00092469B4611B1B1FA81F202E0B0FA80F2F1
:10C8B00020329046FFF72BFF04460F4640EA0A005D
:10C8C00041EA0B0153465A46084303D120463946F4
:10C8D000BDE8F08D114653EA010015D0C8F14002C1
:10C8E0005046FFF723FF05460E465046594642463E
:10C8F000FFF70DFF084301D0012000E000200543B1
:10C9000046EAE0762C4337430A984FEA4453A0EBBB
:10C9100008004FEAD4240A304FF0000244EA47549A
:10C920004FEAD72502D500200146D1E701051019AD
:10C930006941DDE9084500196941BDE8F04DA0E70E
:10C94000C1F30A52C1F3130140F2FF3341F48011E5
:10C950009A4202DA00200146704740F233439A427D
:10C96000A2F2334202DC5242FFF7E0BEFFF7CFBE35
:10C97000064C074D06E0E06840F0010394E807002C
:10C9800098471034AC42F6D3FFF702FCFC7C020857
:10C990001C7D02083A2800D2303820F02002412ABB
:10C9A00001D3A2F13700884201D34FF0FF30704726
:10C9B00070B501EB020410F8015B15F0070301D11B
:10C9C00010F8013B2A1106D110F8012B03E010F8F2
:10C9D000016B01F8016B5B1EF9D12B0705D4002315
:10C9E000521E0FD401F8013BFAE710F8013B02F1A7
:10C9F0000202A1EB030303E013F8015B01F8015B02
:10CA0000521EF9D5A142D6D3002070BD10B55849A9
:10CA10004A6822F440324A604A6843681A434A60CE
:10CA20000268526822F4807203685A600268536890
:10CA3000026943EA022203685A600268526822F0DF
:10CA4000407203685A600268526883681A43036838
:10CA50005A600268926822F4006203689A60026871
:10CA60009268C3681A4303689A60424B826A9A428A
:10CA700018D00268926822F0706203689A600268B7
:10CA80009268836A1A4303689A600268926822F087
:10CA9000405203689A6002689268C36A1A43036846
:10CAA0009A600BE00268926822F0706203689A60F4
:10CAB0000268926822F0405203689A6002689268A5
:10CAC00022F0020203689A6002689368826943EA6E
:10CAD000420203689A60026AD2B10268526842F464
:10CAE000006203685A600268526822F46042036878
:10CAF0005A6002685368426A521E4FF4604494FAC6
:10CB0000A4F4B4FA84F4A24013430268536005E02D
:10CB10000268526822F4006203685A600268D26AAE
:10CB200022F470020368DA620268D36A828B521EB2
:10CB300043EA02520368DA620268926822F40072E1
:10CB400003689A6002689368026B43EA42220368B2
:10CB50009A600268926822F4806203689A600268B0
:10CB60009368426943EA822203689A6010BD00001C
:10CB7000002301400100000F00B5A1B0FE4840882D
:10CB8000C0F34020002830D0FB48408820F40070DB
:10CB9000F94948800420F9490870F94908700920CA
:10CBA000F8490870F8A1FA48FFF74AFBF9A1F848DC
:10CBB0002330FFF745FBF9A1F5484630FFF740FB6E
:10CBC000F8A1F3486930FFF73BFBF8A1F0488C303F
:10CBD000FFF736FBF7A1EE48AF30FFF731FB06F069
:10CBE00027F8EB4806F05CF986E2F54800780B2858
:10CBF0007ED1E24890F90000001F062879D2DFE8D4
:10CC000000F0032E5885AFD90020DC490870DA48BF
:10CC1000408820F4006000F50060D7494880012179
:10CC2000002005F0E4FFE7A1E848FFF709FBE7482B
:10CC300006F036F906F015F80121002005F0D7FFBF
:10CC40000420E34908700020E2490870CA48C088FF
:10CC500020F020002030C849C88021B000BD00204D
:10CC6000C6490870C448408820F4805000F58050C0
:10CC7000C14948800121002005F0B9FFD1A1D34866
:10CC8000FFF7DEFAD14806F00BF905F0EAFF0121C3
:10CC9000002005F0ACFF0420CD4908700020CD49EC
:10CCA0000870B548C08820F020002030B249C88004
:10CCB000D3E70020B1490870AF48408820F4005005
:10CCC00000F50050AC4948800121002005F08FFF9D
:10CCD000BCA1BE48FFF7B4FABC4806F0E1F805F085
:10CCE000C0FF0121002005F082FF0420B84901E0C7
:10CCF000F9E389E008700020B64908709E48C088B2
:10CD000020F0200020309C49C88000BF00209B49B3
:10CD100008709948C08820F4006000F500609649CA
:10CD2000C8800121002005F062FFA6A1A748FFF7F7
:10CD300087FAA64806F0B4F805F093FF0121002019
:10CD400005F055FF0420A24908700020A149087091
:10CD50008948C08820F0200020308749C88000BF63
:10CD60000020864908708448C08820F4805000F56F
:10CD700080508149C8800121002005F038FF91A131
:10CD80009248FFF75DFA914806F08AF805F069FFCE
:10CD90000121002005F02BFF04208D4908700020A0
:10CDA0008C4908707448C08820F0200020307249F7
:10CDB000C88000BF0020714908706F48C08820F407
:10CDC000005000F500506C49C8800121002005F09A
:10CDD0000EFF7CA17D48FFF733FA7C4806F060F82F
:10CDE00005F03FFF0121002005F001FF04207849F4
:10CDF00008700020774908705F48C08820F0200044
:10CE000020305D49C88028E75B484088C0F3C020D7
:10CE100000287CD070486D490988018000206E4947
:10CE20008870084619F095F800EE100AB8EE400A2E
:10CE30006A4880ED000A684864494988018019F011
:10CE400088F800EE100AB8EE400ADFED650A80EEC1
:10CE5000201A624890ED000A31EE000A80ED000AC7
:10CE6000604800680F905F48406810905D48816896
:10CE70001191C168129101691391416914918169FD
:10CE80001591C1691691016A1791416A1891816AD9
:10CE90001991C16A1A91016B1B91406B1C9051480A
:10CEA000806B1D904F4890F83C008DF878004D48FD
:10CEB000006C1F904B48406C20900420382213A92E
:10CEC0000E906846FFF77CF9B7EE000A0FA80FC86E
:10CED00007F0A4FA444880ED000A404890ED000AAB
:10CEE0004148D0ED000A80EE201A80ED001A4FF480
:10CEF0009C703D4991ED000A1AF076FB40F2351125
:10CF000000201AF009FB05F093FE384800E019E014
:10CF100005F0D9FF4FF4FA7010F0F6FF10F06AF93F
:10CF20001548408820F4007000F5007012494880D0
:10CF30000846408820F4807000F580704880FFF734
:10CF40001BFED5E30C484088C0F3003000287DD09C
:10CF500021481E490988018000201F498870084621
:10CF600018F0F7FF00EE100AB8EE400A1B4880EDFB
:10CF7000000A194815493BE0461E0120BE02002068
:10CF8000BF020020C00200204144432031000000C5
:10CF9000DC1E012041444320320000004144432074
:10CFA000330000004144432034000000414443204A
:10CFB0003500000043757272656E74342D32300096
:10CFC000A102002030303030000000008208012033
:10CFD0005C0200205D02002009030120CC02002039
:10CFE0000000C84290090020C00100205A780208C1
:10CFF0004988018018F0ADFF00EE100AB8EE400A33
:10D000005FED090A80EE201AFE4890ED000A31EE2D
:10D01000000A80ED000AFC4800680F90FA4840685A
:10D020001090F94881681191C168129101691391BA
:10D030004169149181691591C1691691016A17912D
:10D04000416A1891816A1991C16A00E055E01A910C
:10D05000016B1B91406B1C90EB48806B1D90EA4864
:10D0600090F83C008DF87800E748006C1F90E64887
:10D07000406C20900520382213A90E906846FFF7D7
:10D080009FF8B7EE000A0FA80FC807F0C7F9DF48EE
:10D0900080ED000ADB4890ED000ADC48D0ED000A84
:10D0A00080EE201A80ED001A4FF49E70D74991ED62
:10D0B000000A1AF099FA4FF49B7100201AF02CFA2A
:10D0C00005F0B6FDD24805F0FEFE4FF4FA7010F000
:10D0D0001BFF10F08FF8CF48408820F4007000F557
:10D0E0000070CC4948800846408820F4807000F5E4
:10D0F00080704880FFF740FDFAE2C6484088C0F3E0
:10D10000403000287ED0C448C449098801800020EE
:10D11000C1498870084618F01CFF00EE100AB8EEEE
:10D12000400AB84880ED000ABB48BC4949880180E4
:10D1300018F00FFF00EE100AB8EE400A5FED580A33
:10D1400080EE201AAF4890ED000A31EE000A80ED23
:10D15000000AB34800680F90B14840681090B0488A
:10D1600081681191C168129101691391416914910B
:10D1700081691591C1691691016A1791416A1891E7
:10D18000816A1991C16A1A91016B1B91406B1C90C5
:10D19000A348806B1D90A24890F83C008DF8780061
:10D1A0009F48006C1F909E48406C20900F203822B2
:10D1B00013A90E906846FFF703F8B7EE000A0FA810
:10D1C0000FC807F02BF9974880ED000A8D4890EDC5
:10D1D000000A9448D0ED000A80EE201A80ED001A73
:10D1E0004FF4A0708F4991ED000A1AF0FDF940F25A
:10D1F000371100201AF090F905F01AFD844805F067
:10D2000062FE00E017E04FF4FA7010F07DFE0FF0C0
:10D21000F1FF8048408820F4007000F500707D49DF
:10D2200048800846408820F4807000F5807048806F
:10D23000FFF7A2FC5CE27748C088C0F3C02000285A
:10D240007ED0754875490988018000207249887030
:10D25000084618F07EFE00EE100AB8EE400A694853
:10D2600080ED000A6C486D494988018018F071FE14
:10D2700000EE100AB8EE400A5FEDA70A80EE201A11
:10D28000604890ED000A31EE000A80ED000A644823
:10D2900000680F9062484068109061488168119161
:10D2A000C1681291016913914169149181691591C5
:10D2B000C1691691016A1791416A1891816A1991A1
:10D2C000C16A1A91016B1B91406B1C905448806B92
:10D2D0001D90534890F83C008DF878005048006C41
:10D2E0001F904F48406C20900920382213A90E90BF
:10D2F0006846FEF765FFB7EE000A0FA80FC807F0F3
:10D300008DF8494880ED000A3E4890ED000A4648F5
:10D31000D0ED000A80EE201A80ED001A4FF4117053
:10D32000414991ED000A1AF05FF940F23B210020DB
:10D330001AF0F2F84FF4117017F0CEFA3A4800E004
:10D340001EE080ED000A05F073FC314805F0BBFDDE
:10D350004FF4FA7010F0D8FD0FF04CFF2D484088C4
:10D3600020F4007000F500702A4948800846408883
:10D3700020F4807000F580704880FFF7FDFBB7E176
:10D380002448C088C0F3003000287CD022482349BC
:10D3900009880180002020498870084618F0D9FDCE
:10D3A00000EE100AB8EE400A164880ED000A1A484E
:10D3B0001A494988018018F0CCFD00EE100AB8EE39
:10D3C000400A5FEDF90A80EE201A0E4890ED000A3F
:10D3D00031EE000A80ED000A114800680F901048F5
:10D3E000406810900E4881681191C16812910169DE
:10D3F00013914169149181691591C1691691016A6E
:10D40000179113E0CC02002090090020C4010020F5
:10D410005A780208461E01200903012082080120D3
:10D42000D8090020C8010020CC010020416A1891D1
:10D43000816A1991C16A1A91016B1B91406B1C9012
:10D44000AD48806B1D90AC4890F83C008DF878009A
:10D45000A948006C1F90A848406C20900E203822EC
:10D4600013A90E906846FEF7ABFEB7EE000A0FA8B0
:10D470000FC806F0D3FFA14880ED000AA04890ED48
:10D48000000A9E4800E02FE0D0ED000A80EE201A4E
:10D4900080ED001A40F24920984991ED000A1AF0F7
:10D4A000A3F84FF40F7100201AF036F805F0C0FB16
:10D4B000944805F008FD4FF4FA7010F025FD0FF0C8
:10D4C00099FE9148408820F4007000F500708E4964
:10D4D00048800846408820F4807000F580704880BD
:10D4E000FFF74AFB04E19BE08748C088C0F3403067
:10D4F0000028F7D0854886490988018000208349A3
:10D500008870084618F025FD00EE100AB8EE400AB3
:10D510007B4880ED000A7D487D494988018018F0EC
:10D5200018FD00EE100AF8EE400A9FED7A1A80EE20
:10D53000810A7348D0ED000A30EE200A80ED000A1F
:10D54000754800680F907448406810907248816870
:10D550001191C16812910169139141691491816916
:10D560001591C1691691016A1791416A1891816AF2
:10D570001991C16A1A91016B1B91406B1C9066480E
:10D58000806B1D90644890F83C008DF878006248EC
:10D59000006C1F906048406C20900320382213A933
:10D5A0000E906846FEF70CFEB7EE000A0FA80FC8F3
:10D5B00006F034FF594880ED000A514890ED000A0A
:10D5C0005648D0ED000A80EE201A80ED001A40F295
:10D5D0004E20524991ED000A1AF006F840F23D2122
:10D5E000002019F099FF05F023FB464805F06BFC7D
:10D5F0004FF4FA7010F088FC0FF0FCFD42484088B0
:10D6000020F4007000F500703F49488008464088CB
:10D6100020F4807000F580704880FFF7ADFA67E075
:10D620003F480078162843D137484088C0F3C020CF
:10D63000C0B935484088C0F3003098B932484088B6
:10D64000C0F3403070B93048C088C0F3C02048B93A
:10D650002D48C088C0F3003020B92B48C088C0F3E3
:10D66000403098B10FF0C6FD2748408820F4007084
:10D6700000F50070244948800846408820F48070F6
:10D6800000F580704880FFF777FA31E00FF0B2FDC7
:10D690001D48008820F0100010301B490880084603
:10D6A000008820F040004030088018F05FFA1FE04A
:10D6B00015484088C0F3C020C0B913484088C0F363
:10D6C000003098B910484088C0F3403070B90E4817
:10D6D000C088C0F3C02048B90B48C088C0F30030F0
:10D6E00020B90948C088C0F3403008B113F024FACB
:10D6F00000BFFFF7B2BA0000D8090020D001002017
:10D70000CC0200205A780208461E0120090301209D
:10D71000820801200000C84290090020D4010020A6
:10D72000A102002010B504462146024803F04CFD3A
:10D7300010BD0000D40A002010B5044803F057FDC6
:10D74000042801D0012010BD0020FCE7D40A0020ED
:10D7500010B5002400F014F8012801D0012010BDFC
:10D76000064803F058FD044634B94FF400610348FD
:10D7700003F0DCFB00B101242046F0E7D40A0020CE
:10D7800008B5012000909DF8000008BD2DE9F84380
:10D7900004460D4616461F464FF0000833462A46FB
:10D7A00021460548009703F0E1FD08B14FF001085C
:10D7B0004046BDE8F8830000D40A00202DE9F84374
:10D7C00004460D4616461F464FF0000833462A46CB
:10D7D00021460548009703F0EDFE08B14FF001081F
:10D7E0004046BDE8F8830000D40A00202DE9F0414E
:10D7F00006460C4617460025A846FA20B0EB440F13
:10D8000001DABDE8F0810BE0725D0A4938460EF09E
:10D8100023FC705D404400F0FF08BF1C681CC5B2CB
:10D82000A542F1DB4246034938460EF015FC00BF25
:10D83000E7E700008377020800BFFEE72DE9F0412B
:10D8400004460D46164600270AE019F0ADFD207883
:10D85000A84202D12046BDE8F081641C781C87B242
:10D86000B742F2DB0020F6E770B504460D4607E04C
:10D8700019F09AFD2078A84201D1204670BD641CA1
:10D8800020780028F4D100BFF8E7000010B5024866
:10D8900000F066FF10BD0000440D0020014608782E
:10D8A00010381823B0FBF3F20848805CC865032ADF
:10D8B00005D908686FF30900001D886503E0086852
:10D8C0006FF309008865886D70470000BC76020818
:10D8D000014600208A6A8B69CBB932B1012A0DD08A
:10D8E000022A03D0032A10D10EE000BFCB6A03F056
:10D8F0008073B3F1807F00D1012007E0CB6AB3F1E0
:10D90000C07F00D1012001E000E000BF34E08B695E
:10D91000B3F5005F1AD132B1012A07D0022A03D031
:10D92000032A11D10AE000BF01200EE0CB6A03F008
:10D930008073B3F1807F00D1012006E0CB6AB3F1A0
:10D94000C07F00D1012000E000BF15E032B1012A04
:10D9500005D0022A04D0032A0CD103E000BF00BF87
:10D96000012008E0CB6A03F08073B3F1807F00D11F
:10D97000012000E000BF00BF704730B50468246894
:10D9800024F4802405682C60046863608468402C5B
:10D9900004D10468A2600468E16003E00468A16047
:10D9A0000468E26030BD704710B5002200210146D6
:10D9B0000023044C236001E0024B1A688A42FBD327
:10D9C00010BD00002404004010B54FF4806001F049
:10D9D0000FFB4FF4004001F00BFB10BD10B504200D
:10D9E00001F006FB10BD10B54FF4007001F000FB14
:10D9F00010BD30B504460D4600222946204600F0F1
:10DA000001F830BDF0B50346012500241148407AE5
:10DA100001281CDC00200F4E767A0E4FB855384690
:10DA2000467A001D40F82630001F467A083082559D
:10DA30003E46707A461C7E72044604F1300008703F
:10DA40003A2048702F2088700020C8700025284692
:10DA5000F0BD0000082001202DE9F04385B0064606
:10DA60000F4600240025A04631466846FEF7E8FB35
:10DA70006C463046FEF7C2FB00F0FF09FA222F2168
:10DA80002046FFF7DBFE05463DB959A13846FEF7B3
:10DA9000A9FB002005B0BDE8F083002028702146D6
:10DAA0005848FEF7CDFB58A15648FEF79BFBFA22DB
:10DAB0002F21681CFFF7C2FE04462CB94CA1384642
:10DAC000FEF790FB0020E5E700202070691C4D4820
:10DAD000FEF788FB4DA14B48FEF784FB642010F055
:10DAE00013FA012247494B4811F048FC4A49087093
:10DAF00008460078A0B10846027848A141480EF0D7
:10DB0000ABFA40493846FEF76DFB642010F0FCF993
:10DB1000404811F096F9642010F0F6F90020B9E7BA
:10DB2000002400204049087052E019F03DFC7CB907
:10DB30004146384811F09CF9142010F0E5F93B4BB0
:10DB40004FF480623A49334811F0F6FC384C00E05B
:10DB5000641C4A4631462046FEF765FBC8B9354885
:10DB6000001B82B20A212046FFF768FE054685B1F8
:10DB70000020687021463846FEF734FB642010F020
:10DB8000C3F9244811F05DF9642010F0BDF90120BB
:10DB900080E72848001B82B20A212046FFF74EFE8C
:10DBA0000446ACB921480068B0F5806F0ED222A1BE
:10DBB0003846FEF717FB642010F0A6F9154811F05F
:10DBC00040F9642010F0A0F9002063E708F5007820
:10DBD000154800783C28A8DB642010F095F90D4822
:10DBE00011F02FF9642010F08FF9002052E70000A7
:10DBF000496E636F727265637420466F726D6174F3
:10DC00000D0A0000090301205F0000002E747874E3
:10DC100000000000F80C01207C0200204572726FA9
:10DC2000723A25640D0A00001901002084020020C8
:10DC300094140020941800205265636F726420646D
:10DC40006F6573206E6F742066696E64210D0A0023
:10DC500038B500244048406940F020003E49486102
:10DC60004FF4FA5010F050F93C480068C06840F09A
:10DC700020003A490968C8600A230D22384939480A
:10DC80000EF0EAF9374800F085F84FF4FA7010F01A
:10DC90003BF9344800F07EF84FF4FA7010F034F994
:10DCA0000A230D2230492F480EF0D6F92D4800F0F6
:10DCB00071F84FF4FA7010F027F90A230D222B495E
:10DCC00028480EF0C9F9274800F064F84FF4FA70BC
:10DCD00010F01AF90A230D2225A122480EF0BCF9F2
:10DCE000204800F057F84FF4FA7010F00DF90124B5
:10DCF00028E0FA21224812F0F5FC00202149088092
:10DD00000A200D2322462049009016480EF0A4F95F
:10DD1000144800F03FF800201C490880002505E069
:10DD2000FA221BA116480BF0E9F8054617480088AF
:10DD3000042801DA002DF3D04FF4FA7010F0E4F863
:10DD4000601CC4B2052CD4DBFA210D4812F0CAFCC9
:10DD500000200C49088038BD00100240040D00204E
:10DD6000C177020808040120C8770208E577020895
:10DD700041542B434E4D493D332C312563256300DF
:10DD80000705012054020020D67702085002002027
:10DD90004F4B00002DE9F0410446002700252046A6
:10DDA000FEF72CFA86B24FF4FA6332462146064853
:10DDB00004F057FC05462DB100BF0020024981F850
:10DDC000380000BFBDE8F081040D00202DE9F041CE
:10DDD00004460D4600270026AAB24FF4FA632146F6
:10DDE000064804F03EFC06462EB100BF0020034961
:10DDF00081F8380000BFBDE8F0810000040D00206C
:10DE000010B5FE48C088C0F34000002834D0FB485D
:10DE1000C08820F00200F949C8800420F849087041
:10DE2000F84908700720F8490870F849F848FEF7E3
:10DE300007FAF849F6482330FEF702FAF649F448A3
:10DE40004630FEF7FDF9F549F1486930FEF7F8F97B
:10DE500004F0EEFEEE4805F023F800210F2004F058
:10DE6000C6FE002005F044F801210F2004F0BFFE9B
:10DE7000012005F03DF835E2E94800780B287DD116
:10DE8000DF4890F90000042806D0052845D0062870
:10DE90007ED0072874D1C1E0E248006810F0200F5E
:10DEA0001DD1E048006840F02000DE490860732181
:10DEB000DC48006819F064FB0121002004F097FEA3
:10DEC000D94805F000F84FF47A7010F01DF80121E0
:10DED000002004F08CFED54804F0F5FF1CE0D1488A
:10DEE000006820F02000CF490860096888B27321DB
:10DEF00019F0B0FB0121002004F079FECC4804F0B9
:10DF0000E2FF4FF47A700FF0FFFF0121002004F0D0
:10DF10006EFEC64804F0D7FF10BD0020B849087057
:10DF2000C4490870B548C08820F00400001DB349FA
:10DF3000C88004F07DFEC0A004F0B2FF01210020E3
:10DF400004F055FEB94804F0BEFF0121002004F0A2
:10DF50004EFEBDA1C048FEF773F9BF4804F0A0FF14
:10DF600004F07FFE0121002004F041FE0C20BB499B
:10DF700008700020BA490870A04802E01FE107E0DD
:10DF800092E0C08820F0200020309C49C880C3E780
:10DF900000209B490870A74908709848C08820F065
:10DFA000100010309549C88004F042FEADA004F086
:10DFB0008AFF0121002004F01AFE9C4804F083FF30
:10DFC0000121002004F013FE40F28A221D21A948FD
:10DFD00016F0F4FBA7480078FF2804D0A5499E4816
:10DFE000FEF72EF903E098A19B48FEF729F99A481D
:10DFF00004F056FF04F035FE0121002004F0F7FD87
:10E000000C20964908700020954908707B48C0880C
:10E0100020F0200020307949C8807DE70020784931
:10E020000870844908707548C08820F008000830DE
:10E030007249C88004F0FCFD8FA004F044FF012168
:10E04000002004F0D4FD794804F03DFF01210020B8
:10E0500004F0CDFD4FF42A721D21864816F0AEFB68
:10E0600084480078FF2804D082497B48FEF7E8F80E
:10E0700003E075A17848FEF7E3F8774804F010FF55
:10E0800004F0EFFD0121002004F0B1FD0C207349E4
:10E0900008700020724908705848C08820F020009D
:10E0A00020305649C88037E75448C088C0F3800004
:10E0B00048B35248C08820F004005049C8806649DF
:10E0C0007148FEF7BDF84FF407721D216E4819F034
:10E0D000E7F904F0ADFD544804F0F5FE4FF4FA7092
:10E0E0000FF012FF0FF086F84448C08820F00200BD
:10E0F000801C4249C8800846C08820F00100401CAE
:10E10000C880FFF77DFE3D48C088C0F3001048B3CB
:10E110003A48C08820F010003849C8804E495A4813
:10E12000FEF78EF840F28A221D214B4819F0B8F90B
:10E1300004F07EFD3C4804F0C6FE4FF4FA700FF088
:10E14000E3FE0FF057F82D48C08820F00200801C35
:10E150002A49C8800846C08820F00100401CC880B9
:10E16000FFF74EFE2548C088C0F3C000002825D028
:10E170002248C08820F008002049C8804FF42A7245
:10E180001D21354819F08CF904F052FD264804F0A1
:10E190009AFE4FF4FA700FF0B7FE0FF02BF8174805
:10E1A000C08820F00200801C1449C8800846C0883E
:10E1B00020F00100401CC880FFF722FE92E01848C2
:10E1C000007816287DD10D48C088C0F3800048B97A
:10E1D0000A48C088C0F3001020B90848C088C0F3BE
:10E1E000C00048B10FF006F80448C08820F00100D4
:10E1F000401C0249C88049E051E062E0461E01200F
:10E20000BE020020BF020020C0020020437A0208A4
:10E21000DC1E01204E7A02085B7A0208687A020846
:10E22000A1020020700100205A78020841780208FB
:10E23000517802081A0100205365727665722050E9
:10E24000686F6E653A00000030303030303030306A
:10E250003030303000000000820801205C020020D5
:10E260005D02002041646D696E204D6F62696C65CE
:10E27000313A00005908012041646D696E204D6FEC
:10E2800062696C65323A0000060601200846C088C3
:10E2900020F00200801CC880FFF7B2FD22E00EF0E3
:10E2A000A9FF1148808820F00400001D0E498880D5
:10E2B0000846808820F00200801C88800EF04AFB0F
:10E2C00010E00948C088C0F3800048B90648C088FB
:10E2D000C0F3001020B90448C088C0F3C00008B1E2
:10E2E00012F02AFC00BF17E6461E012038B5024690
:10E2F0000020009000BF92F83C00012801D10220CC
:10E3000038BD012082F83C0000BF0868092816D9F2
:10E310001068C0680C780A3C04EB44050724AC4044
:10E32000A0431468E0600C780A3C04EB440488685D
:10E33000A0401468E46820431468E06013E01068AB
:10E3400000690C7804EB44050724AC40A043146832
:10E3500020610C7804EB44048868A04014682469A8
:10E360002043146820614868072817D21068406B62
:10E370000C79641E04EB84051F24AC40A043146890
:10E380006063088880B20C79641E04EB8404A040AA
:10E390001468646B20431468606331E048680D289A
:10E3A00017D21068006B0C79E41F04EB84051F245E
:10E3B000AC40A04314682063088880B20C79E41F45
:10E3C00004EB8404A0401468246B20431468206389
:10E3D00016E01068C06A0C790D3C04EB84051F241C
:10E3E000AC40A0431468E062088880B20C790D3C10
:10E3F00004EB8404A0401468E46A20431468E062DB
:10E40000194B1A4C1068A04206D10868122803D193
:10E41000586840F480005860144C1068A0421CD129
:10E420000868102802D00868112816D1586840F4EE
:10E4300000005860086810280FD10D4800680D4C86
:10E44000B0FBF4F000EB80004000009002E0009888
:10E45000401E009000980028F9D100BF002082F8EB
:10E460003C0000BF00BF4BE70023014000200140FB
:10E470000400002040420F0001460868C06C70474D
:10E4800070B5044600250CB9012070BD1549A06A7D
:10E49000884200D000BF206C30B90020606484F84E
:10E4A0003C00204600F020F8206C10F0100F11D135
:10E4B000206C20F4885040F0020020642046FEF7D3
:10E4C000A5FA00206064206C20F0020040F00100FA
:10E4D000206400E0012500BF002084F83C0000BF5C
:10E4E0002846D2E70100000F10B586B004461F4948
:10E4F000206888421AD100BF002000901C480068A4
:10E5000040F480701A4908600846006800F4807082
:10E51000009000BF00BF382001900320029000202F
:10E52000039001A9134800F071FD1DE01249206815
:10E53000884219D100BF002000900D48006840F4C7
:10E5400080600B4908600846006800F48060009015
:10E5500000BF00BF382001900320029000200390EC
:10E5600001A9064800F052FD06B010BD0020014090
:10E5700044380240000002400022014000140240E2
:10E5800070B504460D4600262068806810F4806F40
:10E590000FD02068806810F4807F0AD0206C40F093
:10E5A0002000206400BF002084F83C0000BF012050
:10E5B00070BD00F031FE064612E0681C10D025B197
:10E5C00000F02AFE801BA8420AD9206C40F004000B
:10E5D000206400BF002084F83C0000BF0320E7E770
:10E5E0002068006800F002000228E6D16FF01200F7
:10E5F00021680860206C40F4007020642068806806
:10E6000010F0405F17D1A069A8B92068C06A10F463
:10E61000700F04D02068806810F4806F0BD1206CDC
:10E6200020F480702064206C10F4805F03D1206C93
:10E6300040F0010020640020BAE7000008B5014660
:10E640000020009000BF91F83C00012801D1022079
:10E6500008BD012081F83C0000BF0868806810F008
:10E66000010F14D10868806840F001000B689860C1
:10E670002D4800682D4BB0FBF3F000EB40000090FC
:10E6800002E00098401E009000980028F9D1086828
:10E69000806810F0010F45D0086C40F20163984388
:10E6A00040F4807008640868406810F4806F05D0FA
:10E6B000086C20F4005040F480500864086C10F49A
:10E6C000805F04D0486C20F00600486401E0002020
:10E6D000486400BF002081F83C0000BF144A6FF07E
:10E6E00022000B681860506810F01F0F0BD10868EB
:10E6F000806810F0405F15D10868806840F0804065
:10E700000B6898600EE00B4B086898420AD10868C5
:10E71000806810F0405F05D10868806840F0804054
:10E720000B689860002093E70400002040420F002F
:10E730000023014000200140014691F835000228E5
:10E7400003D08020486501207047052081F83500FE
:10E750000868006820F001000A6810600020F3E7F4
:10E76000F8B50446002000908B4800684FF416511D
:10E77000B0FBF1F7A56D2E6894F85C100820884076
:10E78000304213D02068006810F0040F0ED02068CB
:10E79000006820F004002168086094F85C100820EC
:10E7A0008840A860606D40F00100606594F85C10DE
:10E7B0007A48884030420DD02068406910F0800FC0
:10E7C00008D094F85C1075488840A860606D40F0EF
:10E7D0000200606594F85C107048C01C88403042AC
:10E7E0000ED02068006810F0020F09D094F85C1079
:10E7F0006A48C01C8840A860606D40F004006065F5
:10E8000094F85C101020884030422FD020680068B7
:10E8100010F0080F2AD094F85C1010208840A860EF
:10E820002068006810F4802F10D02068006810F471
:10E83000002F05D1206CC8B12046216C884715E017
:10E84000A06C98B12046A16C88470FE02068006852
:10E8500010F4807F05D12068006820F0080021684E
:10E860000860206C10B12046216C884794F85C1039
:10E8700020208840304264D02068006810F0100FDB
:10E880005FD094F85C1020208840A86094F8350090
:10E89000052828D12068006820F01600216808604B
:10E8A0002068406920F0800021684861206C08B928
:10E8B000A06C28B12068006820F00800216808607A
:10E8C00094F85C103F208840A86000BF002084F8C6
:10E8D000340000BF012084F83500206D10B12046BF
:10E8E000216D8847F8BD2068006810F4802F10D093
:10E8F0002068006810F4002F05D1606C10B120462C
:10E90000616C88471DE0E06BD8B12046E16B884719
:10E9100017E02068006810F4807F0DD1206800683F
:10E9200020F010002168086000BF002084F8340047
:10E9300000BF012084F83500E06B10B12046E16B88
:10E940008847606D30B3606D10F0010F1DD0052059
:10E9500084F835002068006820F001002168086014
:10E9600000BF0098401C0090B84200D904E0206825
:10E97000006810F0010FF4D100BF00BF002084F840
:10E98000340000BF012084F83500E06C10B120464F
:10E99000E16C884700BFA5E704000020010080006B
:10E9A0002DE9F0410446002500F036FC074614B975
:10E9B0000120BDE8F081606A00B100BF00BF002007
:10E9C00084F8340000BF022084F835002068006815
:10E9D00020F00100216808600AE000F01DFCC01B67
:10E9E000052805D920206065032084F83500E0E77C
:10E9F0002068006810F0010FEFD1206805682248F8
:10EA00000540D4E901010843E1680843216908434E
:10EA100061690843A1690843E1690843216A084321
:10EA20000543606A042803D1D4E90B010843054378
:10EA3000206805602068456925F00705606A054380
:10EA4000606A04280DD1A06A0543E06A48B12046F7
:10EA5000FEF73EFF28B140206065012084F83500B4
:10EA6000A7E7206845612046FEF718FF064694F8A0
:10EA70005C103F208840B06000206065012084F871
:10EA80003500002095E700003F8010F02DE9F047A9
:10EA900004460D4616461F464FF00008D4F858901D
:10EAA00000BF94F83400012802D10220BDE8F087AD
:10EAB000012084F8340000BF94F8350001282BD1E0
:10EAC000022084F83500002060653B463246294626
:10EAD0002046FEF752FF94F85C103F208840C9F8AA
:10EAE00008002068006840F016002168086020686F
:10EAF000406940F0800021684861206C28B120689E
:10EB0000006840F00800216808602068006840F054
:10EB100001002168086006E000BF002084F834008E
:10EB200000BF4FF002084046C0E731B500F074FB6B
:10EB30000546009C601C00D0641C00BF00F06CFB0C
:10EB4000401BA042FAD338BDF0B50C460025002288
:10EB50000023002192E0012606FA01F504EA0502ED
:10EB6000AA427DD106684FEA410C032707FA0CF749
:10EB7000BE430660CF0800F1200656F827604F0715
:10EB80004FEAD76C0F2707FA0CF7BE434FEAD10CB8
:10EB900000F1200747F82C6086684FEA410C0327F4
:10EBA00007FA0CF7BE438660466801278F40BE43D4
:10EBB0004660C6684FEA410C032707FA0CF7BE43CC
:10EBC000C660304E8F0856F827308E07370F0F2655
:10EBD000BE4033402C4EB04201D1002623E02B4EE4
:10EBE000B04201D101261EE0294EB04201D10226D9
:10EBF00019E0284EB04201D1032614E0264EB0425F
:10EC000001D104260FE0254EB04201D105260AE0CD
:10EC1000234EB04201D1062605E0224EB04201D17A
:10EC2000072600E008268F073F0FBE409E4224D1F2
:10EC30008E07370F0F2606FA07F3124E8F0856F885
:10EC400027609E430F4F4FEA910C47F82C60164EF9
:10EC500036689643144F3E603E1D3668964300E08A
:10EC60000BE03F1D3E603E1D366896433F1D3E60F3
:10EC70003E1D366896433F1D3E60491C1029FFF437
:10EC80006AAFF0BD083801400000024000040240B5
:10EC900000080240000C0240001002400014024034
:10ECA00000180240001C0240003C014010B52DED50
:10ECB000028B0446B4F5007F07D1B548006810F414
:10ECC000007F01D111F0B6FF5FE1B4F5806F55D13F
:10ECD000B048006910F4806FF6D132200FF014F9BB
:10ECE0004FF08040406A00EE100AB8EE400ADFEDB7
:10ECF000AA0A80EE201AA94890ED000A31EE000A17
:10ED000080ED000A90ED000A10EE100AFDF761FC9C
:10ED100041EC100BB0EE408AF0EE608A9FEDA00B44
:10ED200053EC102B51EC180BFDF77AFC1CD29E48CB
:10ED30009A4991ED000A0EF0BDFA9C48974991ED71
:10ED4000000A0EF0B7FA40F25520974991ED000AFB
:10ED500018F04AFC9648808820F0400040309449E2
:10ED600088800020934908809FED930A8B4880EDAE
:10ED7000000A00204FF08041486206E1B4F5004FE0
:10ED80007ED18448006910F4004F9DD1814800690C
:10ED900010F4004F98D186488088C00B94D18749E1
:10EDA0000870874816F066F98548407985490978E2
:10EDB000884289D0824840798249087080484079E9
:10EDC0007F490979C1EB011100EB81007E49088080
:10EDD0007E48008801280FDB084600887B490988A7
:10EDE00090FBF1F201FB120030B97148C08820F0AD
:10EDF000080008306E49C8807548006878B17248CC
:10EE0000008873490968B0FBF1F201FB120030B9C8
:10EE10006748C08820F0400040306549C8806A4893
:10EE200000886C49098888420BD19FED630A5E48CF
:10EE300080ED000A40F255205B4991ED000A18F080
:10EE4000D3FB6548007810F0040F96D06248007834
:10EE500010F0020F16D061480088012812DB5A48D2
:10EE600000885E49098890FBF1F201FB120048B965
:10EE70004F48C08820F4806000F580604C4900E075
:10EE80002CE0C8805448007810F0010F7DD0544821
:10EE900000884D490988884217D0514840884A491E
:10EEA0000988884211D04E4880884749098888429D
:10EEB0000BD04B48C08844490988884205D048484F
:10EEC00000894149098888425FD13948C08820F4C7
:10EED000006000F500603649C88056E0B4F5006F68
:10EEE00053D12C48006910F4006F4ED129480069B5
:10EEF00010F4006F49D12748006910F4805F1FD1DA
:10EF000038480068401C37490860084600683649A0
:10EF1000B1F9001090FBF1F0012808D031480068E9
:10EF20003149B1F9001090FBF1F0401C08D10020EC
:10EF30002C4908602D480088401C00B22B490880ED
:10EF40001448006910F4805F1FD026480068401EF6
:10EF500024490860084600682349B1F9001090FB75
:10EF6000F1F0012808D01F4800681F49B1F90010CE
:10EF700090FBF1F0401C08D100201A4908601B48A2
:10EF80000088401E00B219490880BDEC028B10BDFC
:10EF900010180240001002400024F446A80100208E
:10EFA000000000000000E03F98010020AC010020BC
:10EFB000880200202801002000000000220100201B
:10EFC000FC00002021010020620100204A010020F5
:10EFD00010020020B6010020180200205A02002072
:10EFE0007808012098020020EC010020DA010020BE
:10EFF00010B5044604480068204204D0024804606A
:10F000002046FFF753FE10BD143C0140F8B5024600
:10F010000B460025002400200021DCE0012606FA32
:10F0200001F51E6806EA0504AC4273D15E68022E43
:10F0300002D05E68122E13D1CF0802F1200656F8D6
:10F0400027004E07F70E0F26BE40B0434F07FF0EB6
:10F050001E69BE403043CF0802F1200646F8270063
:10F0600010684F000326BE40B0431E7906F0030629
:10F070004F00BE40304310605E68012E08D05E68CD
:10F08000022E05D05E68112E02D05E68122E13D1BA
:10F0900090684F000326BE40B0434F00DE68BE407C
:10F0A00030439060506801268E40B0431E79C6F30D
:10F0B00000168E4030435060D0684F000326BE409B
:10F0C000B0434F009E68BE403043D0605E6806F09B
:10F0D0008056B6F1805F7DD100BF00260096404E7D
:10F0E000366846F480463E4F3E603E46366806F43B
:10F0F0008046009600BF00BF3A4E8F0856F82700A2
:10F100008E07370F0F26BE40B043374EB24202D1B2
:10F11000002624E05EE0354EB24201D101261EE019
:10F12000334EB24201D1022619E0324EB24201D131
:10F13000032614E0304EB24201D104260FE02F4ED8
:10F14000B24201D105260AE02D4EB24201D1062677
:10F1500005E02C4EB24201D1072600E008268F07B9
:10F160003F0FBE4030431F4E8F0846F82700264E03
:10F170003068A0435E6806F48036B6F5803F00D163
:10F180002043214E3060361D3068A0435E6806F48F
:10F190000036B6F5003F00D120431B4E361D3060CF
:10F1A000361D3068A0435E6806F48016B6F5801FF1
:10F1B00000D12043144E08363060361D3068A0431D
:10F1C0005E6806F40016B6F5001F00D120430E4E0F
:10F1D0000C363060491C1029FFF420AFF8BD000048
:10F1E0004438024008380140000002400004024058
:10F1F00000080240000C02400010024000140240CF
:10F2000000180240001C0240003C01400AB181612C
:10F2100001E00B04836170470148006870470000FB
:10F220000000002070B50446002600250CB901201E
:10F2300070BD94F83D0028B9002084F83C002046B9
:10F2400000F0DCFA242084F83D002068006820F0FB
:10F2500001002168086001F0BFFB05463948B5FB95
:10F26000F0F62068466038496068884201D8701C12
:10F2700007E04FF4967070434FF47A71B0FBF1F0F1
:10F28000401C216808623049606888420ED8606876
:10F290004000B5FBF0F0C0F30B00042801D20420BD
:10F2A0002DE060684000B5FBF0F028E0A06828B9C8
:10F2B000606800EB4000B5FBF0F008E0606800EB30
:10F2C000C00101EB0010B5FBF0F040F480400005F8
:10F2D000000D01D1012012E0A06828B9606800EBA0
:10F2E0004000B5FBF0F008E0606800EBC00101EB06
:10F2F0000010B5FBF0F040F4804040F4004021687D
:10F30000C861D4E90701084321680860D4E9031003
:10F31000084321688860D4E9050108432168C86072
:10F320002068006840F00100216808600020206427
:10F33000202084F83D000020206384F83E0000BFB8
:10F3400076E7000040420F00A08601002DE9FC5F37
:10F3500004460F4690469946DDE90CAB0E9E00250B
:10F36000FFF75AFF054694F83D0020287ED1192367
:10F370000122BD492046009503F043FB10B1022055
:10F38000BDE8FC9F00BF94F83C00012801D1022099
:10F39000F6E7012084F83C0000BF2068006810F008
:10F3A000010F05D12068006840F001002168086065
:10F3B0002068006820F4006021680860222084F83A
:10F3C0003D00402084F83E0000202064C4F824A0C2
:10F3D000A4F82AB0A548E062608D20854B464246DD
:10F3E00039462046CDE9006503F0C4F980B1206CB0
:10F3F000042806D100BF002084F83C0000BF012093
:10F40000BEE700BF002084F83C0000BF0320B7E740
:10F41000208D88B900BF00200190206840690190CC
:10F4200020688069019000BF00BF2068006840F438
:10F4300000702168086041E0208D012819D1206802
:10F44000006820F480602168086000BF00200190FF
:10F4500020684069019020688069019000BF00BF6A
:10F460002068006840F40070216800E0FAE008605D
:10F4700024E0208D022816D12068006820F48060E6
:10F48000216808602068006840F400602168086016
:10F4900000BF0020019020684069019020688069C9
:10F4A000019000BF0AE000BF002001902068406981
:10F4B000019020688069019000BF00BFC3E0208DEB
:10F4C000032872D8208D01281AD12A4631462046B9
:10F4D00003F02BFB30B1206C202801D103204FE733
:10F4E00001204DE720680069C1B2626A501C606269
:10F4F0001170208D401E2085608D401E6085A2E029
:10F50000208D02282AD133460022594920460095F1
:10F5100003F077FA08B1032032E72068006840F46E
:10F5200000702168086020680069C1B2626A501CDE
:10F5300060621170208D401E2085608D401E6085A8
:10F5400020680069C1B2626A501C60621170208D2F
:10F55000401E2085608D401E608574E03346002289
:10F5600043492046009503F04CFA08B1032007E711
:10F570002068006820F480602168086020680069C5
:10F58000C1B2626A501C60621170208D401E2085DD
:10F59000608D401E60853346002235492046009527
:10F5A00003F02FFA10B10320EAE620E0206800689B
:10F5B00040F400702168086020680069C1B2626A86
:10F5C000501C60621170208D401E2085608D401E91
:10F5D000608520680069C1B2626A501C6062117067
:10F5E000208D401E2085608D401E60852BE02A46C0
:10F5F0003146204603F099FA30B1206C202801D121
:10F600000320BDE60120BBE620680069C1B2626A42
:10F61000501C60621170208D401E2085608D401E40
:10F62000608520684069C0F3800060B1206800698F
:10F63000C1B2626A501C60621170208D401E20852C
:10F64000608D401E6085208D00287FF438AF20201B
:10F6500084F83D00002084F83E0000BF84F83C00A0
:10F6600000BF8DE602208BE6020010000000FFFFC5
:10F67000040001002DE9FC5F04460F4690469946C0
:10F68000DDE90CAB0E9E0025FFF7C6FD054694F89C
:10F690003D0020287ED1192301225649204600959D
:10F6A00003F0AFF910B10220BDE8FC9F00BF94F851
:10F6B0003C00012801D10220F6E7012084F83C003B
:10F6C00000BF2068006810F0010F05D120680068B5
:10F6D00040F00100216808602068006820F40060A4
:10F6E00021680860212084F83D00402084F83E0015
:10F6F00000202064C4F824A0A4F82AB03E48E062A8
:10F70000608D20854B46424639462046CDE900654E
:10F7100003F0DCF880B1206C042806D100BF002083
:10F7200084F83C0000BF0120BEE700BF002084F841
:10F730003C0000BF0320B7E733E02A4631462046AD
:10F7400003F02AFA60B1206C042807D12068006811
:10F7500040F40070216808600120A5E70320A3E7BA
:10F76000616A481C6062087821680861208D401E2B
:10F770002085608D401E608520684069C0F3800050
:10F7800078B1208D68B1616A481C60620878216890
:10F79000086100E02CE0208D401E2085608D401E19
:10F7A0006085208D0028C8D12A463146204603F0C6
:10F7B000FDF860B1206C042807D12068006840F48F
:10F7C00000702168086001206EE703206CE7206864
:10F7D000006840F4007021680860202084F83D0033
:10F7E000002084F83E0000BF84F83C0000BF5BE7C7
:10F7F000022059E7020010000000FFFF10B586B09C
:10F8000004462349206888421ED14FF4407001907D
:10F810001220029001200390032004900420059000
:10F8200001A91C48FFF7F2FB00BF002000901A4816
:10F83000006840F40010184908600846006800F4A9
:10F840000010009000BF21E01449206888421DD1BB
:10F8500003200190122002900120039003200490C5
:10F860000420059001A90E48FFF7D0FB00BF00203F
:10F8700000900948006840F4800007490860084685
:10F88000006800F48000009000BF00BF06B010BD0B
:10F89000005400400004024040380240005800403C
:10F8A0000014024070B504460CB9012070BD4CF63E
:10F8B000CC402168086045F2555021680860D4E9C1
:10F8C000001048602168A0688860FFF7A5FC054625
:10F8D00006E0FFF7A1FC401B302801D90320E5E733
:10F8E0002068C0680028F4D14AF6AA202168086080
:10F8F0000020DBE701464AF6AA200A6810600020D3
:10F900007047000002480068401C014908607047C9
:10F910000000002010B50D48006840F400700B494D
:10F9200008600846006840F4806008600846006887
:10F9300040F480700860032000F0A4F8002000F07C
:10F9400007F800F019F8002010BD0000003C02404C
:10F9500070B50446074800684FF47A71B0FBF1F5C2
:10F96000284602F0FFF800222146501E00F04CF815
:10F97000002070BD0400002010B5032000F082F8C4
:10F98000002211466FF00B0000F03EF800221146F5
:10F990006FF00A0000F038F8002211466FF00900FD
:10F9A00000F032F800221146501F00F02DF800221E
:10F9B0001146101F00F028F800221146901E00F09A
:10F9C00023F800221146501E00F01EF810BD000062
:10F9D00000BF00F01F0201219140034A430942F891
:10F9E000231000BF7047000080E100E000BF00F07E
:10F9F0001F020121914042094FF0E02303EB8202F4
:10FA0000C2F8001100BF70472DE9F05F80460D4637
:10FA10001646002704F08CFC074639462A46334632
:10FA200001F00700C0F1070ABAF1040F02D94FF044
:10FA3000040A01E0C0F1070AD14600F1040ABAF154
:10FA4000070F02D24FF0000A01E0A0F1030AD446EA
:10FA50004FF0010A0AFA09FAAAF1010A0AEA020AAF
:10FA60000AFA0CFA4FF0010B0BFA0CFBABF1010B8D
:10FA70000BEA030B4AEA0B042146404604F060FC03
:10FA8000BDE8F09F00BF00F00702064B19684FF673
:10FA9000FF031940044B0B4343EA0221014B196059
:10FAA00000BF70470CED00E00000FA0500BF00BF8A
:10FAB00000BF00BF00BFBFF34F8F00BF00BF00BF3C
:10FAC0000948006800F4E06008490843001D064941
:10FAD000086000BF00BF00BFBFF34F8F00BF00BF73
:10FAE00000BF00BF00BFFDE70CED00E00000FA051D
:10FAF00002461068416200207047F0B50346144684
:10FB0000002500221868426A21B942EA04401E68B2
:10FB1000B06219E01868806A02EB1042002508E024
:10FB2000186800F5827050F8250002EB1042681C3E
:10FB3000C5B2481EA842F3DC42EA0447186800F543
:10FB400082704E1E40F826700020F0BD10B50446AD
:10FB5000D4F8EC030AF008FD10BD70B504460D465C
:10FB6000C5EBC50304F1380101EB8301CA682946DE
:10FB7000D4F8EC030AF048FC70BD70B504460D469D
:10FB8000C5EBC50304F5FC7101EB8301CA68294686
:10FB9000D4F8EC030AF0A5FC70BD10B50446D4F807
:10FBA000EC030AF0E4FC10BD70B504460D4605F008
:10FBB0008000802808D105F07F00C0EBC00104F16F
:10FBC000380000EB810607E005F07F00C0EBC001C4
:10FBD00004F5FC7000EB810605F07F00307005F045
:10FBE0008000C009707000BF94F8B803012801D1EB
:10FBF000022070BD012084F8B80300BF31462068A0
:10FC00000BF0AAFA00BF002084F8B80300BF00BFC1
:10FC1000EFE770B504460D4605F08000802808D156
:10FC200005F07F00C0EBC00104F1380000EB810655
:10FC300005E0C5EBC50104F5FC7000EB8106002072
:10FC4000B07005F07F003070C5F3C010707000BF59
:10FC500094F8B803012801D1022070BD012084F876
:10FC6000B80300BF314620680BF0ECFC00BF002059
:10FC700084F8B80300BF00BFEFE770B504460D4637
:10FC800000BF94F8B803012801D1022070BD012003
:10FC900084F8B80300BF05F08000802805D105F086
:10FCA0007F0120680BF0DEFE02E020680BF0C4FE4E
:10FCB00000BF002084F8B80300BF00BFE6E702469B
:10FCC00001F00F00C0EBC00302F5FC7000EB8300F5
:10FCD000008B80B270472DE9F04705460E469046EE
:10FCE0001F464FF0000906F08000802808D106F07A
:10FCF0007F00C0EBC00105F1380000EB810407E094
:10FD000006F07F00C0EBC00105F5FC7000EB81043C
:10FD100006F07F00207006F08000C0096070C4F813
:10FD20000880E770607808B12078E080022F01D168
:10FD30000020207100BF95F8B803012802D10220ED
:10FD4000BDE8F087012085F8B80300BF2146286888
:10FD50000BF024F900BF002085F8B80300BF484627
:10FD6000EEE72DE9F04104460E461746984606F0A8
:10FD70007F00C0EBC00104F5FC7000EB8105EF6073
:10FD8000C5F814800020A861687006F07F00287014
:10FD90002069012800D12F6116F07F0F05D1227C48
:10FDA000294620680BF056FB04E0227C2946206897
:10FDB0000BF0D2FC0020BDE8F08170B504460D4682
:10FDC00005F08000802808D105F07F00C0EBC0015D
:10FDD00004F1380000EB810605E0C5EBC50104F530
:10FDE000FC7000EB81060120B07005F07F003070E0
:10FDF000C5F3C010707000BF94F8B803012801D19A
:10FE0000022070BD012084F8B80300BF314620688D
:10FE10000BF05CFC15F07F0F05D1217C04F56F72AF
:10FE200020680BF0EDFB00BF002084F8B80300BF92
:10FE300000BFE6E72DE9F04104460E461746984616
:10FE400006F07F00C0EBC00104F1380000EB810533
:10FE5000EF60C5F814800020A8610120687006F0EA
:10FE60007F0028702069012800D12F6116F07F0FD4
:10FE700005D1227C294620680BF0ECFA04E0227CB4
:10FE8000294620680BF068FC0020BDE8F0810000E6
:10FE90002DE9FC5F044626684FF0000B002001901E
:10FEA0008146002500908046FE4F20680BF014FE2E
:10FEB00000287DD120680BF047FE08B9BDE8FC9F03
:10FEC00020680BF041FE00F00200022805D12068F6
:10FED000406900F002002168486120680BF034FEA0
:10FEE00000F40020B0F5002F7CD1002520680BF035
:10FEF00001FE019073E0019810F0010F6BD0E9B2A0
:10FF000020680BF016FE814619F0010F4AD001213E
:10FF100006F5306000EB45108160206901282BD187
:10FF2000C5EBC50104F5FC7000EB8100816806F5A6
:10FF3000306000EB45100069C0F31200091AC5EBF0
:10FF4000C50204F5FC7000EB82008161C5EBC501C0
:10FF500004F5FC7000EB8100C5EBC502C16804F537
:10FF6000FC7000EB820080680144C5EBC50204F51B
:10FF7000FC7000EB8200C160E9B22046FFF7FDFD96
:10FF8000206901280ED16DB9C5EBC50104F5FC70DF
:10FF900000EB8100406928B904F56F7201212068E7
:10FFA0000BF02EFB09F0080008280AD1204600E0DB
:10FFB000A1E200F0E7FB082106F5306000EB4510F8
:10FFC000816009F01000102805D1102106F530607D
:10FFD00000EB451081606D1C01984008019001986C
:10FFE000002888D120680BF0AFFD00F48020B0F528
:10FFF000802F7DD120680BF074FD0190002582E0F8
:020000040801F1
:10000000019810F0010F7AD0E9B220680BF07BFD67
:10001000814619F0010F3FD00120A840009040F622
:10002000340080590099884340F6340188510121F9
:1000300006F5106000EB451081602069012815D19C
:10004000C5EBC50104F1380000EB8100C5EBC5022A
:10005000C16804F1380000EB820080680144C5EB00
:10006000C50204F1380000EB8200C160E9B220460D
:10007000FFF773FD206901280ED16DB9C5EBC501ED
:1000800004F1380000EB8100406928B904F56F7273
:10009000012120680BF0B4FA09F00800082805D106
:1000A000082106F5106000EB4510816009F0100092
:1000B000102805D1102106F5106000EB4510816075
:1000C00009F04000402805D1402106F5106000EB02
:1000D0004510816009F00200022805D1022106F5D1
:1000E000106000EB4510816009F08000802801E07D
:1000F0000DE004E003D12946204604F03DF96D1CD3
:10010000019840080190019800287FF479AF206899
:100110000BF01AFD00F00040B0F1004F10D140F696
:100120000400805920F0010140F60400815120466E
:1001300000F001FB2068406900F000402168486140
:1001400020680BF001FD00F40060B0F5006F0ED1E7
:1001500040F60800805910F0010F02D0204600F050
:1001600035FB2068406900F4006021684861206820
:100170000BF0EAFC00F48050B0F5805F5ED140F6F1
:100180000400805920F0010140F604008151102143
:1001900020680BF067FC4FF0000B0CE0FF2106F528
:1001A000106000EB4B10816006F5306000EB4B10E7
:1001B00081600BF1010B60685845EFD84FF0FF31BB
:1001C00040F618008151001D805940F0011140F6A1
:1001D0001C008151206B70B1D6F8840840F00B01EF
:1001E000C6F8841840F64400805940F00B0140F6F0
:1001F000440081510EE040F61400805940F00B019C
:1002000040F614008151001F805940F00B014FF45B
:10021000016081514FF40060805920F4FE614FF479
:1002200000608151217C04F56F7220680BF0E8F9C1
:100230002068406900F480502168486120680BF014
:1002400083FC00F40050B0F5005F74D120680AF020
:1002500005FF2068C06820F470502168C8602068DD
:100260000BF018FC58B90021E1604FF40071616196
:100270002068C06840F410502168C86089E00321FC
:10028000E1604021616100F0A1FB0746064887421A
:1002900010D3064887420DD22068C06840F47050E1
:1002A000216805E00095BA0AC0ACD800C0E1E400BE
:1002B000C8606EE09148874209D39148874206D2D0
:1002C0002068C06840F460502168C86061E08C48D4
:1002D000874209D38B48874206D22068C06840F421
:1002E00050502168C86054E08648874209D3864848
:1002F000874206D22068C06840F440502168C86038
:1003000047E08148874209D38048874206D2206867
:10031000C06840F430502168C8603AE07B488742AA
:100320000AD37B48874207D22068C06840F4205037
:100330002168C8602DE035E07548874209D37548CB
:10034000874206D22068C06840F410502168C86017
:100350001FE07048874209D36F48874206D2206861
:10036000C06840F400502168C86012E06A488742C3
:1003700009D36A48874206D22068C06840F4E0503A
:100380002168C86005E02068C06840F4C05021685A
:10039000C860204600F0B6F92068406900F40050BB
:1003A0002168486120680BF0CFFB00F01000102896
:1003B00045D12068806920F0100021688861D6F856
:1003C000208008F00F00C0EBC00104F5FC7000EBCA
:1003D000810AC8F3434002281AD147F6F07018EAA0
:1003E000000F26D0C8F30A123046DAF80C100BF0D2
:1003F000B1FBC8F30A11DAF80C000844CAF80C0083
:10040000C8F30A11DAF818000844CAF8180010E016
:10041000C8F3434006280CD1082204F56F7130461A
:100420000BF098FBC8F30A11DAF818000844CAF870
:1004300018002068806940F01000216888612068F9
:100440000BF082FB00F00800082808D1204600F0DD
:1004500079F92068406900F0080021684861206847
:100460000BF072FB00F48010B0F5801F09D1E9B2E7
:10047000204600F055F82068406900F4801021689B
:10048000486120680BF060FB00F40010B0F5001F1D
:1004900009D1E9B2204600F04CF82068406900F428
:1004A00000102168486120680BF04EFB00F080408E
:1004B000B0F1804F08D12046FFF748FB2068406923
:1004C00000F080402168486120680BF03DFB00F09F
:1004D000040004280FD12068D0F8048008F004003C
:1004E000042802D12046FFF758FB2068406840EA04
:1004F00008002168486000BFE0E40000C0E1E400BB
:100500000024F40080730601A0491A01002D310176
:1005100040A44C0100366E0120ABA6010048E80162
:1005200070B504460D462946D4F8EC030AF0B8F835
:1005300070BD70B504460D462946D4F8EC030AF0A8
:10054000B2F870BD30B58BB00446002514B9012057
:100550000BB030BD032084F8B903204600F094F8B6
:1005600020680AF06FFF282204F110016846FBF7AB
:1005700027FE94E80F000AF093FD002120680BF09D
:10058000FAFA002530E00121C5EBC50204F138007C
:1005900000EB82004170C5EBC50204F1380000F8A1
:1005A0002250C5EBC50200EB8200C5800021C5EBDF
:1005B000C50204F1380000EB8200C170C5EBC50232
:1005C00004F1380000EB82008160C5EBC50204F144
:1005D000380000EB8200C160C5EBC50204F13800B1
:1005E00000EB820041616D1C0F2DCCD3002536E05D
:1005F0000021C5EBC50204F5FC7000EB82004170E0
:10060000C5EBC50204F5FC7000F82250C5EBC5022D
:1006100004F1380000EB8200C580C5EBC50204F58B
:10062000FC7000EB8200C170C5EBC50204F5FC70E4
:1006300000EB82008160C5EBC50204F5FC7000EBA5
:100640008200C160C5EBC50204F5FC7000EB8200BE
:100650004161206800F5827040F825106D1C0F2D57
:10066000C6D3282204F110016846FBF7A9FD94E8DF
:100670000F000AF015FE012084F8B90320680AF083
:1006800000FE002064E7000010B586B00446206834
:10069000B0F1A04F30D14FF4C05001900220029031
:1006A00000200390032004900A20059001A913481C
:1006B000FEF7ACFC00BF1248006840F08000104913
:1006C000086000BF002000900D481030006840F422
:1006D00080400B49103108600846006800F48040F3
:1006E000009000BF00BF00BF002205214320FFF79C
:1006F0008BF94320FFF77AF906B010BD00000240E5
:100700003438024070B504460125E06810B1022873
:1007100004D101E0002503E0012501E0012500BF2F
:1007200000BF2946D4F8EC030AF05CF8D4F8EC03D7
:100730000AF01EF870BD10B50446D4F8EC030AF0B8
:1007400039F810BD10B50446D4F8EC030AF039F8B6
:1007500010BD70B504460D4600BF94F8B8030128DB
:1007600001D1022070BD012084F8B80300BF2946E2
:1007700020680BF018FA00BF002084F8B80300BF0F
:1007800000BFEFE710B5044604F56F71D4F8EC0331
:100790000AF04EF810BD10B5044600BF94F8B80337
:1007A000012801D1022010BD012084F8B80300BF48
:1007B00020680AF057FD20680BF036F900BF0020D2
:1007C00084F8B80300BF00BFEDE7000010B5044691
:1007D000D4F8EC030AF0A3F82068D0F8000E40F03B
:1007E00001012068C0F8001E206A28B10348006893
:1007F00040F006000149086010BD000010ED00E067
:1008000070B504460D4600266C48006800F00F00E5
:10081000A84209D269490D700846006800F00F002F
:10082000A84201D0012070BD207800F0020002280B
:1008300007D16348006820F0F000A16808436049D0
:100840000860207810F0010F76D06068012807D189
:100850005B4808380068C0F34040B8B90120E2E7BF
:100860006068022802D06068032807D1544808381D
:100870000068C0F3406048B90120D4E75048083808
:100880000068C0F3400008B90120CCE74C4800687C
:1008900020F003006168084349490860FEF7BCFC8A
:1008A00006466068012810D108E0FEF7B5FC801B01
:1008B00041F28831884201D90320B4E740480068FA
:1008C00000F00C000428F0D136E06068022810D156
:1008D00008E0FEF7A1FC801B41F28831884201D973
:1008E0000320A0E73648006800F00C000828F0D18B
:1008F00022E06068032810D108E0FEF78DFC801B21
:1009000041F28831884201D903208CE72C480068E5
:1009100000F00C000C28F0D10EE008E0FEF77CFCA3
:10092000801B41F28831884201D903207BE72448AB
:10093000006810F00C0FF1D12048006800F00F00A3
:10094000A84209D91D490D700846006800F00F0043
:10095000A84201D0012066E7207800F004000428B6
:1009600007D11748006820F4E050E16808431449B3
:100970000860207800F00800082808D110480068B6
:1009800020F46040216940EAC1000D49086000F090
:100990004FF80B49096801F0F001F02292FAA2F237
:1009A000B2FA82F2D140074A515CC8400649086059
:1009B0000020FEF7CDFF002035E70000003C02409C
:1009C00008380240C476020804000020014800688C
:1009D000704700000400002000B5FFF7F7FF07494B
:1009E000096801F4E0514FF4E05292FAA2F2B2FA2F
:1009F00082F2D140024A515CC84000BD0838024032
:100A0000D476020800B5FFF7E1FF0749096801F451
:100A100060414FF4604292FAA2F2B2FA82F2D140FF
:100A2000024A515CC84000BD08380240D476020832
:100A300070B50021002200230020274C246814F008
:100A40000C0404D0042C04D0082C41D103E023482A
:100A500040E023483EE0204C241F246804F03F017E
:100A60001D4C241F246814F4800F10D01C4CB4FBC0
:100A7000F1F5194C241F246847F6C076344096FAE5
:100A8000A6F6B6FA86F6F44005FB04F20FE0134C26
:100A9000B4FBF1F5104C241F246847F6C0763440AF
:100AA00096FAA6F6B6FA86F6F44005FB04F20A4C6E
:100AB000241F246804F440344FF4403595FAA5F51A
:100AC000B5FA85F5EC40641C6300B2FBF3F001E07D
:100AD000024800BF00BF70BD083802400024F40087
:100AE00040787D0138B504460025207810F0010FCC
:100AF00074D0F748006800F00C0004280DD0F448CA
:100B0000006800F00C00082813D1F148001F0068AD
:100B100000F48000B0F5800F0BD1ED480838006874
:100B2000C0F34040002859D06068002856D1012009
:100B300038BD00BF6068B0F5803F08D1E448083890
:100B4000006840F48030E249083908601EE06068BF
:100B5000B0F5A02F0DD1DE480838006840F48020A1
:100B6000DB49083908600846006840F480300860B6
:100B70000CE0D7480838006820F48030D4490839A0
:100B800008600846006820F48020086000BF6068A4
:100B900090B1FEF741FB054606E0FEF73DFB401B2A
:100BA000642801D90320C3E7C94808380068C0F3A6
:100BB00040400028F1D011E0FEF72EFB054606E08C
:100BC000FEF72AFB401B642801D90320B0E7C04888
:100BD00008380068C0F340400028F1D1207800F0C8
:100BE0000200022869D1BA48006810F00C0F0BD03F
:100BF000B748006800F00C00082821D1B448001F55
:100C0000006810F4800F1BD1B14808380068C0F3A9
:100C1000400020B1E068012801D0012088E7AC48FD
:100C20000838006820F0F800F82292FAA2F2B2FA2E
:100C300082F2216991400843A549083908603CE0E7
:100C4000E06828B30120A3490860FEF7E5FA0546ED
:100C500006E0FEF7E1FA401B022801D9032067E70E
:100C60009B4808380068C0F340000028F1D098483D
:100C70000838006820F0F800F82292FAA2F2B2FADE
:100C800082F221699140084391490839086014E0D3
:100C9000002090490860FEF7BFFA054606E0FEF71F
:100CA000BBFA401B022801D9032041E788480838D5
:100CB0000068C0F340000028F1D1207800F008005F
:100CC00008282CD16069A8B1012083490860FEF78B
:100CD000A3FA054606E0FEF79FFA401B022801D959
:100CE000032025E77A486C300068C0F340000028F4
:100CF000F1D014E0002078490860FEF78DFA05462F
:100D000006E0FEF789FA401B022801D903200FE70D
:100D10006F486C300068C0F340000028F1D12078A3
:100D200000F0040004287ED100BF00200090684835
:100D30003830006840F08050654938310860084616
:100D4000006800F08050009000BF00BF634800685A
:100D500040F4807061490860FEF75EFA054606E0DF
:100D6000FEF75AFA401B022801D90320E0E65B484F
:100D7000006810F4807FF3D000BFA068012808D17C
:100D800053486830006840F00100514968310860FC
:100D90001DE0A06805280DD14D486830006840F07E
:100DA00004004B49683108600846006840F00100C3
:100DB00008600CE046486830006820F001004449B3
:100DC000683108600846006820F00400086000BF31
:100DD000A068A0B1FEF720FA054608E0FEF71CFA6D
:100DE000401B41F28831884201D90320A0E63848EF
:100DF00068300068C0F340000028EFD013E0FEF731
:100E00000BFA054608E0FEF707FA401B41F288316D
:100E1000884201D903208BE62D4868300068C0F372
:100E200040000028EFD1A069F0B32948006800F025
:100E30000C00082871D0A069022858D1002025494B
:100E40000866FEF7E9F9054606E0FEF7E5F9401BFE
:100E5000022801D903206BE61D4808380068C0F35A
:100E600040600028F1D1D4E90701084347F6C07279
:100E700092FAA2F2B2FA82F2616A91400843012228
:100E8000A16AC2EB51014FF4403292FAA2F2B2FAD7
:100E900082F2914008434FF0706292FAA2F2B2FAE5
:100EA00082F2E16A914000E039E008430849091FF5
:100EB0000860012007490866FEF7AEF905460FE015
:100EC000FEF7AAF9401B02280AD9032030E60000E9
:100ED0000838024000004742800E47420070004040
:100EE00010480068C0F340600028E9D017E00020F7
:100EF0000D490866FEF790F9054606E0FEF78CF905
:100F0000401B022801D9032012E606480068C0F3FE
:100F100040600028F2D102E0FFE7012008E600204F
:100F200006E60000003802400000474270B58AB073
:100F300004460D460026032084F83400606C032824
:100F400020D0B5F5805F04D1A06B40F08050A06345
:100F50001CE0B5F5006F07D1204605F063FD06469D
:100F6000A06B3043A06311E03DB9204605F025FD9C
:100F70000646A06B3043A06308E0A06B40F0006021
:100F8000A06303E0A06B40F08050A063A06B40B171
:100F900040F2FF5021688863012084F834000AB0D1
:100FA00070BD60680490A0680590E06806900795A1
:100FB00060690890A069099007A807C88DE8070034
:100FC000206804A90EC904F06BFF012084F83400E6
:100FD0000020E4E730B503460022586E020E900967
:100FE0000870C2F38300487002F003008870586EE6
:100FF000C0F30742CA70B3F86400C0F307220A7155
:1010000093F864204A71986E020E4FF6FF7000EA62
:101010000210C880986EC0F30742C88840EA1210D8
:10102000C88002F00F0008726820C05AC0F307227F
:10103000D0094872C2F380108872C2F34010C8729F
:10104000C2F30010087300204873586C00283ED18A
:101050009007000D08616820C25C086940EA8200C0
:101060000861D86E020E086940EA92100861C2F366
:10107000C200087502F007004875D86EC0F3074239
:1010800050098875C2F38200C8759007400F087632
:101090006C20C05AC0F30722087E40EAD2100876BE
:1010A0000869401C58650C7E586DA41C0125A5409C
:1010B000684358650C7A0120A0409865D3E915046F
:1010C000640A6043D8654FF400741C6630E0586CC5
:1010D000012821D16820C25C9006800A0861D86E80
:1010E000020E086940EA02200861D86EC0F3074288
:1010F0000869104308616C20C05AC0F307220869D0
:10110000441C4FF48060A4FB00045865D8654FF47C
:1011100000749C651C660BE040F2FF501C68A063E5
:10112000986B40F080509863012083F8340030BD04
:10113000C2F3801001F8190F9006400E48706C2021
:10114000C25C487840EAD210487002F07F00887094
:10115000186F020ED009C870C2F341100871C2F3B3
:10116000820048719007000F8871186FC0F3074222
:10117000887940EA92108871C2F34010C87100204B
:10118000087202F0010048727020C05AC0F30722B2
:10119000D0098872C2F38010C872C2F3401008737D
:1011A000C2F300104873C2F38100887302F0030099
:1011B000C8737020C25C5008087401204874A1F103
:1011C00019014FF00000B2E70246506C0860906CC5
:1011D0004860D06C8860106DC860506D0861906D7B
:1011E0004861D06D8861106EC86100207047F8B505
:1011F000044604260025002000906946204605F09C
:10120000C3FB054615B1A06B2843A0630098C0F34B
:1012100043263046F8BD10B504460CB9012010BD78
:1012200094F8340020B900202077204600F050F8D0
:10123000032084F83400204600F008F80020A06362
:101240002063012084F834000020E8E730B589B03D
:101250000446002500200390049005900690079016
:101260007620089006A807C88DE80700206803A923
:101270000EC904F015FE002014490860206804F02F
:1012800029FE01201149A039C1F8A0000220FDF774
:101290004CFC204605F003FB054645B1012084F8CF
:1012A0003400A06B2843A063012009B030BD204664
:1012B00005F077FA05463DB1012084F83400A06BB3
:1012C0002843A0630120F0E70020EEE7A08025423C
:1012D00010B586B004462149206888423BD100BF42
:1012E000002000901E48006840F400601C4908601F
:1012F0000846006800F40060009000BF00BF4FF493
:10130000706001900220029001200390032004905D
:101310000C20059001A91348FDF778FE4FF480508A
:1013200001900220029000200390032004900C20E2
:10133000059001A90B48FDF769FE042001900220E9
:10134000029001200390032004900C20059001A935
:101350000548FDF75BFE06B010BD0000002C014003
:101360004438024000080240000C02402DE9F04FD2
:1013700087B004468A4690461E46DDF84090002518
:10138000FDF74AFF0090AB465746BAF1000F07D170
:10139000A06B40F00060A063012007B0BDE8F08FB3
:1013A00094F8340001287DD10020A06308EB0601E9
:1013B000E06D814205D9A06B40F00070A063012070
:1013C000EBE7032084F8340000202168C862606CD9
:1013D000012801D04FEA48284FF40071206804F03A
:1013E000D7FD054655B140F2FF5021688863A06BD8
:1013F0002843A063012084F83400CEE74FF0FF308B
:10140000019070020290902003900220049000202E
:1014100005900120069001A9206804F017FD012E17
:1014200007D9022020634146206804F01DFE0546CE
:1014300006E0012020634146206804F032FE0546A4
:1014400055B140F2FF5021688863A06B2843A06328
:10145000012084F83400A0E72AE02068406B10F4F3
:10146000004F0DD04FF0000B06E0206804F037FD70
:1014700047F82B000BF1010BBBF1080FF5D3203718
:10148000B9F1000F05D0FDF7C7FE0099401A484595
:101490000ED340F2FF5021688863A06B40F00040FB
:1014A000A06300E080E0012084F83400032074E7AA
:1014B0002068406B40F22A310842CED02068406B51
:1014C00010F4807F14D0012E12D9606C03280FD045
:1014D000206804F0B1FE054655B140F2FF50216886
:1014E0008863A06B2843A063012084F8340054E78C
:1014F0002068406B10F0080F0BD040F2FF502168BD
:101500008863A06B40F00800A063012084F83400D9
:1015100043E72068406B10F0020F0BD040F2FF5001
:1015200021688863A06B40F00200A063012084F86A
:10153000340032E72068406B10F0200F0BD040F2EF
:10154000FF5021688863A06B40F02000A063012059
:1015500084F8340021E719E0206804F0C0FC38600A
:101560003F1DB9F1000F05D0FDF756FE0099401A56
:1015700048450BD340F2FF5021688863A06B40F0D0
:101580000040A063012084F8340006E72068406B27
:1015900010F4001FE0D140F2FF5021688863012061
:1015A00084F834000020F8E6A06B40F00050A063FF
:1015B0000120F2E62DE9F04F87B004468846174631
:1015C0001E46DDF840B00025FDF726FE0090A94636
:1015D000C246B8F1000F07D1A06B40F00060A063D5
:1015E000012007B0BDE8F08F94F8340001287DD1C8
:1015F0000020A063B919E06D814205D9A06B40F0CD
:101600000070A0630120ECE7032084F83400002080
:101610002168C862606C012800D07F024FF400711D
:10162000206804F0B5FC054655B140F2FF50216832
:101630008863A06B2843A063012084F83400D0E7BE
:10164000012E07D9202020633946206804F012FEBD
:10165000054606E0102020633946206804F027FE86
:10166000054655B140F2FF5021688863A06B2843BE
:10167000A063012084F83400B3E74FF0FF300190FD
:1016800070020290902003900020049005900120A9
:10169000069001A9206804F0D9FB2AE02068406B7D
:1016A00010F4804F0ED04FF0000906E00AEB8901DC
:1016B000206804F02CFC09F10109B9F1080FF5D3F9
:1016C0000AF1200ABBF1000F05D0FDF7A5FD009936
:1016D000401A58450DD340F2FF5021688863A06B33
:1016E0002843A063012084F8340000E05DE003207B
:1016F00077E72068406B40F21A310842CED020686C
:10170000406B10F4807F14D0012E12D9606C032836
:101710000FD0206804F090FD054655B140F2FF500F
:1017200021688863A06B2843A063012084F83400FB
:1017300057E72068406B10F0080F0BD040F2FF50C5
:1017400021688863A06B40F00800A063012084F842
:10175000340046E72068406B10F0020F0BD040F2D7
:10176000FF5021688863A06B40F00200A063012055
:1017700084F8340035E72068406B10F0100F0BD070
:1017800040F2FF5021688863A06B40F01000A06316
:10179000012084F8340024E740F2FF502168886378
:1017A000012084F8340000201BE7A06B40F00050BB
:1017B000A063012015E7042808D14FF0E021096952
:1017C00041F004014FF0E022116107E04FF0E02109
:1017D000096921F004014FF0E02211617047000017
:1017E00010B5BA480088401CB849088008460088EF
:1017F000B0F57A7F7EDD00200880B54800780128AA
:1018000004DD0020B3490870B14908700020B249D6
:101810000870B2490870B248008820F48060B0496E
:10182000088008460088C0F3800020B1AD480078E9
:10183000401CAC490870AB480078AB490988884225
:1018400022DDA748008820F00200801CA4490880FF
:101850000846C08820F48070C8800846008820F0C0
:101860000100401C088000209E4908709C480088A8
:1018700020F004009A49088004209C4908703C200C
:10188000994908800BF0B6FC99480078012827D0C8
:1018900093480088C0F3C00010BB96480078964972
:1018A000097888420BDB934800789349097888428D
:1018B00005DB91480078914800788E4800788D4883
:1018C0000078401C8B4908708B4800788B49097858
:1018D000084488490978884202D100208549087067
:1018E00087480088401C8649088086480088401C3C
:1018F000844900E0E8E0088083480088401C824971
:10190000088082480088401C804908807E48008802
:101910007F490988884231DD71488088C0F3C01052
:1019200060B36F48808820F080006D498880084649
:10193000C08820F010001030C88000207549088051
:101940009FED750A754880ED000A00207449087003
:101950000DE09FED710A73487149097800EB810031
:1019600080ED000A6E480078401C6D4908706C4894
:1019700000780F28EDDB00206949087058488088FE
:10198000C0F3C01058B363480088401C6149088008
:10199000084600883B2822DD002008805F4890ED43
:1019A000000A60485E49097800EB810080ED000A7A
:1019B0005B480078401C5A490870084600780E2899
:1019C00001DD002008704648C08820F0200020304B
:1019D0004349C8809FED500A504880ED000A5248A4
:1019E0000078401C5049087050480088401C4F49FE
:1019F000088037480078401C354908703B4800781B
:101A0000401C3A49087008460078102801DD002083
:101A100008703348008820F48040314908804448E9
:101A20000078401C4249087042480078401C4149F7
:101A3000087041480078401C3F4908703F480088C2
:101A4000401C3E4908803E480088401C3C490880B4
:101A50003C480068401C3B4908603B480078401CFB
:101A60003949087039480088401C384908800846C0
:101A70000088B0F5E16F0FDD19488088C0F3803031
:101A800050B11748808820F48040154988809FED28
:101A9000220A2F4880ED000A2E480088401C2D495C
:101AA000088008460088012802DD00202A490880B5
:101AB0002A480088401C29490880084600880128D7
:101AC00002DD00202649088010BD0000940200209D
